:020000040800F2
:10300000784F0020D530000805A800082D8500085D
:1030100000000000000000000000000000000000B0
:1030200000000000000000000000000095D0000833
:10303000000000000000000009AA0008F5E70008F1
:10304000E7300008E7300008E7300008E730000804
:10305000E7300008E7300008E7300008E7300008F4
:10306000E7300008E7300008E7300008D9370008EB
:10307000E7300008E7300008E7300008E7300008D4
:10308000E7300008E7300008E7300008E7300008C4
:10309000E7300008E7300008E7300008E7300008B4
:1030A000E7300008E7300008E730000895EC00083A
:1030B0009DEC0008E7300008E73000080000000041
:1030C0000348854600F012F900480047E5FC000877
:1030D000784F00200448804704480047FEE7FEE799
:1030E000FEE7FEE7FEE7FEE749E80008C13000081A
:1030F00030B50B46014600202022012409E00D4690
:10310000D5409D4205D31D469540491B2546954017
:1031100040191546521E002DF1DC30BD00487047A5
:10312000800E010803460B439B0703D009E008C942
:10313000121F08C0042AFAD203E00B780370401C67
:10314000491C521EF9D27047D2B201E00270401CF5
:10315000491EFBD270470022F6E710B513460A4617
:1031600004461946FFF7F0FF204610BD10B504468F
:1031700005E00B780370401C002B00D0491C521E48
:10318000F7D2204610BD421C0178401C0029FBD11B
:10319000801A704730B504460020034600E05B1CEF
:1031A000934203D2E05CCD5C401BF8D030BD0346B7
:1031B0000A780270401C491C002AF9D11846704751
:1031C0000321001D401E037812021A43491EF9D53F
:1031D00010467047034603220870000A491C521E1D
:1031E000FAD51846704770B506460CF0F7FA046831
:1031F00005460A220021304600F040F82C6070BDE0
:1032000070B506460CF0EAFA046805460A22002169
:10321000304600F033F82C6070BDF0B51FB40646A0
:10322000002082B005464024019100901BE00199E6
:1032300022460F46304600F07BF8049A059B801A20
:10324000994110D310461946224600F061F8361A0B
:103250008F410197224601200021009F00F058F87D
:1032600038184D4100902046641E0028DFDC019B89
:1032700000982946324607B0F0BD0000F7B5009C23
:103280000F4600262578641C002D05D0FFF746FF69
:103290000068405DC007F5D12B2D02D02D2D18D030
:1032A000641E39462046029A00F0A0F8002F04D090
:1032B0003968A14201D100993960710502240029C1
:1032C0000BDA4042002803DD0CF088FA0460A00706
:1032D000FEBD012080020643E3E70028F8DA0CF087
:1032E0007DFA04600048FEBDFFFFFF7F064C01250C
:1032F000064E05E0E36807CC2B430C3C984710349E
:10330000B442F7D3FFF7E0FE64120108841201080B
:1033100010B5202A04DB0146203A9140002010BD60
:10332000914020239C1A0346E3401943904010BD6E
:1033300010B5202A04DB0846203AD040002110BDF9
:103340000B46D340D0402024A21A9140084319468E
:1033500010BD3A2800D23038202302469A43412A31
:1033600001D310463738884201D30020C04370474C
:1033700070B58C180578401C6B075B0F01D1037882
:10338000401C2A1106D10278401C03E006780E701A
:10339000401C491C5B1EF9D12B0705D40023521E8B
:1033A0000DD40B70491CFAE70378401CCB1A921C11
:1033B00003E01D780D70491C5B1C521EF9D5A1421B
:1033C000D8D3002070BD836A0B438362426170478B
:1033D00001607047006C80B27047002070477047F2
:1033E00042542D383030304F50454E00F7B582B042
:1033F000029C00272078641C15460197302802D0D3
:10340000002D15D015E020780127641C782804D001
:10341000582802D0002D09D00BE0002D01D0102D2E
:1034200007D1002710252078641C02E0082500E061
:103430000A250026009610E0009901276943081824
:10344000020C294680B2714300908E1838048642DF
:1034500001D3012001902078641C2946FFF779FFF1
:103460000028E9DA0398002805D0002F01D0641E57
:1034700000E0029C04600198002806D00CF0AEF930
:1034800002210160C81E05B0F0BD00993004084358
:10349000F9E7002904D08168012211438160704757
:1034A00081680222114381607047000010B506490F
:1034B000884208D144150121204607F089FC0021EB
:1034C000204607F085FC10BD0024014000218268E1
:1034D0000123DB071A4382600F231B038268D20F8C
:1034E000D207491C994201D0002AF7D181680029EE
:1034F00001DB006C70470020704702460020CB01C2
:1035000004D5926801231B069A4300E012680A4220
:1035100000D001207047000030B5C268084B1A4047
:103520008C680B680D792343CC686D032C432343CF
:103530000C69496923430B431343C36030BD00004A
:1035400003D2FFFF8168042211438160704700218C
:10355000016001718160C1600161416170470000DB
:1035600070B5064603F000F9314D324C012E1BD0E8
:103570000026A680E6802681002005F007FF0020B7
:1035800005F024FF002005F053FF002000F060F854
:10359000687C002803D007F0F9FF02F089FA267052
:1035A00000200AF029FE70BD23484421807A484358
:1035B00022490858224940182249884206D2687C8C
:1035C000002803D0072000F0CBFD70BD012003F0E0
:1035D000EDFBFF211C48F5314170090A81700C2078
:1035E000A0806420E0801948208109F08FF9687C70
:1035F00000280AD0A87C002801D10AF0FDFD08F0BF
:10360000AFF8002008F06EFF02E0012000F020F883
:10361000687C022802D0012005F0B8FE002005F0E9
:10362000D5FE012005F004FF0120207070BD0000D0
:10363000AC1C0020880400205C1F00207C1D0020A2
:1036400080345BFF80B92A00241D0020B80B0000E5
:1036500010B50E49012804D00020488009F056F921
:1036600010BD6420488009F011F90948407C012808
:1036700003D108480078022803D0002009F06CF933
:1036800010BD012009F068F910BD00008804002079
:10369000AC1C00208004002070B5344C2078012838
:1036A00058D1A088324E334D002832D10C20A08052
:1036B000617820464088002907D00C3080B26080B5
:1036C000FA2809D90020607006E00C3880B26080CA
:1036D000462801D2012060703078022802D1687C2F
:1036E000022816D0E088002807D16420E08002205C
:1036F00005F06CFE022005F09BFE608809F0C6F81C
:10370000687C002802D0A87C002802D001200AF0A2
:1037100073FD687C00281DD0208900281AD13078DC
:10372000012818D00020FFF793FF07F061FF002069
:1037300009F038F8002008F0D5FE0F480021007B82
:1037400007F01CFD012005F021FE0120FFF780FF9E
:103750000A48208170BD08F003F8687C022802D175
:103760000020FFF775FF08F095FAF1E788040020C4
:1037700080040020AC1C00205C1F0020B80B00005F
:1037800010B50949002008700AF03CF90BF04CF91B
:1037900001F028FA01F062FB01F090F905F036FE25
:1037A0000BF04CFE10BD00007E04002010B5064951
:1037B0000020087007F0DAFE05F0E4F807F0ECF8F6
:1037C00004F044FA10BD00007C0400200148007899
:1037D00070470000880C002010B501F09FFC10BD60
:1037E00042542D383030304F50454E0010B52A48E5
:1037F0002A4902782A4C0878022A0ED0FF283CD0A9
:1038000005F000FC27490978002912D0002808D0CB
:10381000012806D0162804D033E0497808F0DCF8F7
:103820002FE00AF0C5FC25282BD10020FFF798FED9
:1038300027E021780B000BF0C3FF0A1E06090C0FCE
:103840001215181E1B1E05F00FFA16E005F026F9DA
:1038500013E005F0B5FA10E005F0BEFA0DE005F052
:103860002FFB0AE005F0F2FA07E005F06FFB04E039
:1038700005F0C8F801E005F099F900F0FBFA02F054
:103880006FFD20780A2801D103F0BAF820780B28C0
:1038900001D102F0DBFF10BD800400206A0200208D
:1038A000241D00208804002010B505490020087060
:1038B00000F0A8FB00F072FD01F0A4FB10BD0000B9
:1038C0007F04002010B506490020087009F094FF1D
:1038D0000BF0F6FE02F010FF05F0EEFB10BD00004D
:1038E0007D040020F0B595B02C210AA8FFF733FC29
:1038F00000240894099405940694079414216846BA
:10390000FFF729FC0121084607F02AFA0121CE021F
:10391000304607F04FFA344F384601F021FC334867
:103920000A9033480B9010200C9080010D900E945B
:1039300080210F9185101095119020201290000287
:10394000139014940AA9384601F05CFC012202216C
:10395000384601F04DFC0121384601F0F3FB092007
:1039600002220B21C00604F053FB0896022608A889
:103970000671032747718471C471092008A9C00624
:1039800004F00EFB68468482C4821A48069068469A
:1039900084838777154F05A94C3F38460BF00AF80A
:1039A0007021684601800121418084808681082140
:1039B000C181058244820294694638460AF0C4FFF8
:1039C0000122294638460AF0B1FF0022102138466C
:1039D0000AF0B6FF012138460AF08EFF0021384672
:1039E0000AF096FF15B0F0BD580002404C2C014083
:1039F000A80C0020CA080000F7B582B000239E463C
:103A00000093304C0223E35E24782F4D6600AD5BBB
:103A10000026B4465200049248E06246002A03D0D1
:103A200072461207120F04E00278401C9646724656
:103A300012096646002E29D00026B446224F960071
:103A4000403FBE593419002C00DA00243A2C00DD26
:103A50003A240826164001965607760FEA0877079B
:103A600001D5521992B2B70702D56F08BA1892B2AF
:103A7000F60702D0AD08AA1892B2019D002D07D01A
:103A80009B1A124A934209DA134607E00126D4E74B
:103A90009B180E4AD243934200DD13460A4A650042
:103AA000555B0B80891C009A521C0092049A561E8A
:103AB0000496002AB1DC034843800470009805B0E6
:103AC000F0BD00006E040020C40A010800F8FFFFEA
:103AD000F8B507465A48C079002841D0594E012010
:103AE000307064213846FFF703FB05460091084615
:103AF0000A21FFF7FDFA04460A213846FFF7F8FAD3
:103B000008464F490223097A012904D0142F5ED3B5
:103B1000002D41D044E0002D14D02321002808D0EE
:103B2000002C06D02A461032F271B1710521B17015
:103B300008E00246224314D02A461032B271717155
:103B40000421B170002C19D01A2100280FD0103494
:103B5000747131711030F070002D01D10320B070FC
:103B6000F8BD2A4610323271F170B370EAE71034B2
:103B70003471F170002DF3D1B370F8BD002D06D073
:103B80000028FAD0102131711030F070F8BD1030DB
:103B9000F0700120B070F8BD002C01D0002816D0C4
:103BA0006122642F03D9022C21D300281FD0642F57
:103BB00037D9022C35D3002833D04E35B571727108
:103BC000573434714E30F0700420B070F8BD0A2FB5
:103BD00002D84E37F77007E00B3F092F02D28B3027
:103BE000F07001E05734F4700120B070F8BD022C81
:103BF0000FD24E3575713271012C02D04E30F070FB
:103C00000CE0002802D08B30F07007E05820F070F4
:103C100004E04E35757132715734F4700320B07082
:103C2000F8BD642F02D30099002905D057343471B0
:103C30004E30F070B370F8BD4E353571F270F9E763
:103C4000AC1C0020880C0020F0B5FFB082B0204CE6
:103C5000207C0025012836D0A07C01277F02002887
:103C600014D03A4601A9A0680AF0C2FBA068C019A6
:103C7000A060214614313A460E4601A8FFF7BCFE6B
:103C80007A003146304600F075FCA574E07C0028CF
:103C900016D03A4601A9A0680AF0AAFBA068FF3036
:103CA000FF300230A0600B493A460E4601A8FFF7EC
:103CB000A3FE012292023146304600F05BFCE5741F
:103CC0007FB002B0F0BD02480C384570F8E7000044
:103CD000940C0020A814002010B51049CA79002ABD
:103CE0001AD01030C2B2087A012801D03E32D2B2C6
:103CF0000B4B9878002805D106E019188C78CC7009
:103D0000401EC0B20028F8D101201870DA709878EF
:103D1000052801D2401C987010BD0000AC1C00208A
:103D2000880C0020F0B5FFB082B010381121C0001F
:103D300009044018082238490AF05AFB364C092079
:103D40006168000408186060052120684903884202
:103D50005ED800285CD0002008F0C4FB0127FF02D9
:103D60000920C00687612D4800250575BE10324622
:103D7000694660680AF03CFB60688019A0602848CA
:103D800045800570204631461430226876008090C8
:103D90008A4205D3721068468099FFF72DFE0CE029
:103DA00068468099FFF728FE80B204E041000919B7
:103DB0008F82401C80B2B042F8D3809932460846C8
:103DC00000F0D8FB257401276774A574E774E560DB
:103DD000144C01220221204601F00AFA380401F0B5
:103DE000ABF932462046809902F04EFA01210E4886
:103DF0000AF08EFD08480C3847701E2001F078FA52
:103E000001200AF0F9F909480A21C1700021017165
:103E10007FB002B0F0BD0000940C0020941C002084
:103E20006E04002058000240002C0140241D002098
:103E300010B500200AF0E0F90B4C0021204601F0FB
:103E400081F9002109480AF063FD00220221204681
:103E500001F0CEF90120000401F06EF904480021C0
:103E600001708170417010BD58000240002C01406B
:103E7000880C002010B518490878012804D148782A
:103E8000002802D0FFF7E0FE10BD8878002807D098
:103E9000401EC0B288704018C078FFF743FF10BDC5
:103EA00000240C700D480821C17000210171002010
:103EB0000AF0A2F91E2001F01BFA002108480AF0BE
:103EC00027FD08480178022903D0012008F00AFBE9
:103ED00010BD047010BD0000880C0020241D0020BF
:103EE000002C01408104002070B50446002C14D041
:103EF0000E48C179002911D0007A012801D03E3442
:103F0000E4B20B4D2878002801D0FFF791FF012083
:103F10002870EC70A8700020687070BD807901284E
:103F2000FBD1072000F01CF970BD0000AC1C002084
:103F3000880C002010B5FFF7D7FF044C01E0FFF715
:103F400099FF20780028FAD110BD0000880C0020CD
:103F500010B507F049FE11490878002812D0104B1F
:103F600000225C78012C10D0401EC0B208704018AE
:103F70004270087800280AD009F0FAFE01F09AFE93
:103F8000002010BD00F00EF810BD5A70F1E701F0EE
:103F900067F802200AF07CF8002010BD80020020A3
:103FA000340C002070B507F01FFE154A90780028E9
:103FB0000CD05178002909D000235371511D415C68
:103FC000802905D9801E9070022104E0012070BD77
:103FD000401E90700121907806E04418A418A4793E
:103FE0001518AC71401CC0B254788442F5D8507892
:103FF000401AC0B250700249891D4354002070BD60
:10400000601D002070B51B4C65781B4800780228A5
:1040100016D01A480078002812D1194800780228D2
:104020000ED0FFF7D3FB00280AD100F02DF86078FE
:10403000052806D0062804D0A84201D001F070F966
:1040400070BDE0781421401CFFF752F8E17000F0D9
:1040500063F8E0780028F3D10A48C079002803D03B
:104060003A20FFF741FF70BD07F014FE082000F072
:1040700077F870BDF8040020800400208804002038
:1040800081040020AC1C002010B50AF059FF0AF092
:1040900057FF174908708A7A904202D90720487062
:1040A00010BD4A7A904202D90320487010BD0A7AA6
:1040B000904202D90220487010BDCA79904202D9BC
:1040C0000120487010BD8A79904202D900204870C2
:1040D00010BD4A79904202D90420487010BD0A7977
:1040E000904202D20620487010BD0520487010BDD5
:1040F000F804002010B50B210548FFF72CF8044800
:1041000007220449001DFFF70DF8FFF7BDFF10BDA2
:10411000F804002010FE00080EB50E4800210278B9
:10412000002A08D0017000910A231822032185205B
:1041300004F0D8FF0EBD012202700748074A009222
:10414000029101900A2318220321852004F0D0FF58
:104150000EBD0000F4000020FFFF0000760B0108F8
:1041600070B536490978002963D135498979002924
:104170005FD0344C2070002824D0042825D0072894
:1041800023D002206070002008F0E6FB2E4D2E4662
:104190001B3E60880028FCD16078002818D0401EA3
:1041A000C0B2607021784A0089184A19825C628026
:1041B0008919405C00283DD008F068FB01200AF016
:1041C0001BF8E6E701206070DDE703206070DAE7A6
:1041D00000200AF011F81E2001F08AF808F096FB82
:1041E0001A4C2078032804D01948007800280AD0F7
:1041F0000DE0012008F076F9012008F07DFA00209A
:1042000009F0FAFF06E013480078012806D00020E4
:1042100008F068F92078022804D005E0012008F0B1
:1042200061F9F7E7002020700B480421C1700021DC
:10423000017170BD002008F029FBAAE78804002066
:10424000AC1C002068040020680A010881040020DA
:10425000EA00002080040020241D002010B5242046
:10426000FFF768FE10BD10B50AF0C8FA06F0CBFAE9
:1042700004F00AF808F0C8FB0AF01EFE0AF09CFEE3
:104280000AF08AF8FFF72EFB0AF05AFE62B610BD5C
:1042900070B505460020002313E0EA5C120242409C
:1042A00090B20022084C060403D54000604080B262
:1042B00001E04004000C521CD2B2082AF3D35B1C6C
:1042C0009BB28B42E9D370BD2110000010B50446AB
:1042D00011484178114800682030C078002801D08A
:1042E0000F31C9B248060921400E09034118512077
:1042F00008F058FB0A480B496043FEF7F9FE81B20B
:10430000072008F04FFB0849072008F04BFB07493E
:10431000522008F047FB10BD220200207404002048
:1043200099260300A0860100CD2100009202000022
:1043300010B50A48006880690179012903D98068AD
:1043400000F07EFF10BD012903D00548FFF7BEFF36
:1043500010BD8068FFF7BAFF10BD00007404002094
:104360002702000010B5002007F0CEF80A480068C8
:10437000C0690179002909D0012903D9806800F0BA
:104380005FFF10BD8068FFF7A1FF10BD0021512025
:1043900008F008FB10BD00007404002070B51A4836
:1043A000007801280DD119480078022809D1184851
:1043B000184CC07D012805D02078FF2801D0FF20AF
:1043C000207070BD07F082FE1349144B097B8A00F0
:1043D000D118CD78854201D900200FE08D78854233
:1043E00001D901200AE04978814201D9022005E083
:1043F000995C814201D9032000E0042021788142A8
:10440000DFD0207070BD00008004002081040020F7
:10441000241D0020170100205C1F0020ECFE000876
:104420000B482822817A442041430A48094B081846
:10443000125C5958012A03D0022A05D0C160704786
:10444000C26A8918C1607047C26A891AC160704720
:104450005C1F00207C1D002010B507F0B7FB02F0A8
:1044600083F912484421807A114A41438918203146
:10447000C97900290ED00F4C00280FD0A07B032152
:10448000401CFEF735FEA1730320FFF769FE01F023
:104490000FFB10BD0020FFF763FE10BD607B032102
:1044A000401CFEF725FE6173EEE700005C1F002054
:1044B0007C1D0020AC1C002005490979002905D18C
:1044C00001464139192901D82030C0B27047000097
:1044D000601D002010B507F087FB1048807B07287F
:1044E00019D100F0BDFD0E4C2079032804D1022023
:1044F00009F0CEFD05F0C6F82079401CC1B221714B
:104500000848007A002807D00420814201D3002007
:10451000207101F0A9F910BD0320F6E7A0040020E6
:10452000601D0020AC1C0020114A002891780FD09B
:104530005078814201D3907070470D48801D085C0F
:10454000802802D9891C91707047491C917070476E
:104550000748401D085C802804D90229F7D9891E24
:10456000917070470129FCD9491E91707047000075
:10457000601D002070B500230126F60207E05C00F4
:104580000D5FAD19ED032D0C05535B1C9BB29342DF
:10459000F5D370BDF8B51D4D69784A1C6A7049198C
:1045A0008871697800271A4E012901D0072903D3A1
:1045B00001216970A871376114486978401D085C51
:1045C0003038C4B21348C079002814D02046FFF711
:1045D0007FFA687806280DD10C49891D4754A81D1B
:1045E000FEF70EFE0C49092C09D06422095D5043E8
:1045F00040183061F8BD0020FFF7B2FDE9E7642202
:10460000497A5043401A3061F8BD0000601D002017
:10461000A0040020AC1C00209AFE0008FEB5002576
:104620003E487D210290FEF796FD3C487D217D3875
:104630000190FEF790FD394E002073367073B07311
:10464000002404226946284609F0D2FE6846007814
:10465000FF2835D06846C078002831D000200422D9
:104660006946891820398C46C97F0A270B09090732
:104670007B43090F5918CBB26146CB77642148437D
:10468000C018521ED2B2002AEAD100F0CFFA012897
:1046900016D101222146029804F0EAFE0127777321
:1046A0002846012269460F3009F0A2FE68460078CC
:1046B000400705D501222146019804F0D9FEB773C1
:1046C0002035ADB2641CA4B215488442B9D3707BC6
:1046D000012822D1114C12485334218E814201D934
:1046E00000212186618E814201D900206086208EC2
:1046F000002100F04FFA002804D1208E002109F09B
:104700000DFC2086608E002100F044FA002804D1C0
:10471000608E002109F002FC6086FEBDE91E0020CB
:10472000E703000070B505460E460B4C2946A08EE7
:1047300009F0D0FBA0860949884204D10021204617
:104740002030417370BD3146284600F009F800F072
:1047500093FF01F0C9FD70BD3C1F0020FFFF00006A
:10476000F8B507460E46104C104A25462035A87A63
:10477000A18E40008018FF30C1300186002E01D08C
:1047800007F024FAA87A012100F070F8002F08D170
:10479000002E04D1A08E401CC0B2FFF799F902F0A0
:1047A00011FF08F01DF9F8BD3C1F00207C1D002002
:1047B00070B5044600F0C0FF6178601D085C3038B9
:1047C000C0B21849C979002922D0FFF785FA60786C
:1047D00003281CD101F0C8FF62780021A01D1154EC
:1047E000FEF701FD84B2104D002C15D00F48844215
:1047F00012D8641EA0B2002100F0CCF900280BD022
:10480000AC8601210020FFF7ABFF00F035FF70BD43
:104810000020FFF7A5FCDAE70020FFF7A1FC07F076
:10482000D5F9F2E7AC1C00203C1F0020E703000094
:1048300070B505460E460B4C2946A08E09F06EFB5E
:10484000A0860949884204D10021204620304173C6
:1048500070BD31462846FFF783FF00F00DFF01F0E1
:1048600043FD70BD3C1F0020FFFF0000F0B585B088
:1048700007463E4644235E43794B0022F418254602
:1048800020342274774A527B002A0BD07548764A2E
:104890002038927E002F08D01309714A6032D372FB
:1048A000408E08E00022E27105E013076C4A1B0FFE
:1048B0002032D371008EE279012A50D0002902D033
:1048C000384602F0B3FD7801654FC0190290883078
:1048D0000AF0A6FBB851029F8037388A03F0B0FB7C
:1048E0002871388AA860B87D4009207202989C30EF
:1048F0000AF04CFDE862217A01297DD0584A02294C
:104900007BD09059E860788A03F09AFB2874788A03
:104910006861787E4006C00F2070387E0007000F67
:104920006070787EC007C00FA070387E0009E0700C
:104930000298A030C0788007800F20714A48C17B60
:104940006171B97DC906C90EA171F97E6172C07A23
:104950006074AD6128460C30E86105B0F0BD1422EA
:1049600057433F4ABF180497C83700290CD040016D
:1049700039461422039009F03BFD03982946323151
:1049800014300C2209F034FD0020395C0A230A0996
:1049900009075A43090F521869460A54401CC0B20D
:1049A0000828F2D32E4B00209851E86004209F592C
:1049B00064214F43694609180A46203AD27FBA1843
:1049C0009A51EA686427C9787A435118E960401E11
:1049D000C0B20028EBD10499C031088A03F030FB43
:1049E0002871088AA860488A03F02AFB2874488A3C
:1049F0006861C87D400601E028E02CE0C00F20700F
:104A0000887D0007000F6070C87DC007C00FA070D0
:104A1000887D0009E070C87D8006800F2071C87D08
:104A20000007C00F6071087DA071487D60749859BF
:104A3000E968884202D9012020728AE7884202D2BE
:104A40000220207285E70020207282E704498959FC
:104A50000818E86057E79159081AE86053E7000022
:104A60007C1D00205C1F0020AC1C002000B5084904
:104A7000CA784978002A03D0914201D3012000BDB1
:104A8000132902D203F0CAFE00BD012000BD0000C0
:104A9000601D002008498888002801D0401E8880B9
:104AA0000889002801D0401E0881C888002801D04C
:104AB000401EC880704700008804002010B5144BC9
:104AC000187C002823D0134A107801281FD005280D
:104AD0001DD008281BD0518B002918D00E48007813
:104AE000022814D00D4C2478012C10D103280ED0AC
:104AF000491E88B25083002809D1D87E002806D1EB
:104B00000120D87600F066FF2520FFF7EDF910BDF3
:104B1000AC1C0020241D0020810400208004002003
:104B200003484078062801D30020704701207047D1
:104B3000F804002070B5114DE978002906D010491D
:104B4000104A4118914201D8012070BD0E490C7ED7
:104B5000012C11D80D49FEF7CBFA697800290BD04A
:104B60000C214C430A4961180A89824204D84989B8
:104B7000814201D9012070BD002070BD6D0200206E
:104B8000009423FD00093D00441D00201027000073
:104B9000A4FE0008C208084B4007D218400F0123AA
:104BA0008340002903D0E032107C18407047FF3268
:104BB0006132507B184070477C1D0020014600295F
:104BC0000BD00020064A4300D35A8B4204D0401C2D
:104BD000C0B23328F7D3FF20704700207047000091
:104BE0001600010810B509480078012808D10848C6
:104BF000818A002904D10178012902D004F096FEAF
:104C000010BD817EC17007F073F810BD241D002017
:104C1000A0040020044AC108891842078979520F6C
:104C200001209040084070479204002010B51A49B6
:104C3000FEF75EFA8721C900FF22411A193291421C
:104C400007D216480079002801D0012010BD0020AD
:104C500010BD13490A89824204D84A89824201D987
:104C6000012010BD8A89824204D8CA89824201D9B2
:104C7000012010BD0A88824204D84A88824201D9A4
:104C8000012010BD8A88824204D8C988814201D996
:104C9000012010BD002010BD102700006D02002073
:104CA000040C002070B505462F492846FEF720FA6F
:104CB0000446A0B203F066FA2846FFF73BFF01283E
:104CC00009D02A482A4A007E012811D82949497862
:104CD000002902D00CE0012070BD0C21414389184D
:104CE0000B89A34204D84989A14201D9002070BD93
:104CF0000C214843115AA14203D881184988A14286
:104D00000CD880188188A14202D8C188A14205D858
:104D10000189A14204D84089A04201D9012070BD77
:104D200015488188A14204D8C188A14201D9012037
:104D300070BD8189A14204D8C189A14201D9012055
:104D400070BD0189A14204D84189A14201D9012045
:104D500070BD0188A14204D84088A04201D9012039
:104D600070BD002070BD000010270000441D002011
:104D7000A4FE00086D020020040C002030B54202A1
:104D8000520A00210A4D0B4C4800205A904201D291
:104D9000131A00E0831A0A2B03D24900615AA96151
:104DA00030BD491CC9B23329EED3288B80B230BD47
:104DB000CC0400201600010870B545026D0A0024DD
:104DC000104E6000305A03F0C3F800210122430264
:104DD00002D54000104300E040004002400A8542F6
:104DE00005D10949601C88616000305A70BD491CBA
:104DF000C9B21729EBD3641CE4B2692CE1D30020BB
:104E000070BD000044FF0008CC04002010B5002055
:104E10000D4A918805E013185B7A472B03D0401C9C
:104E2000C0B28142F7D8091A082909DB401CC0B278
:104E30001118093107220548FEF7ACF9002801D006
:104E4000002010BD012010BD040700207AFE0008DC
:104E50000148007870470000F600002010B50924D2
:104E6000E406208A000741D5322000F041FA208A6A
:104E700000073BD506F076FF07F018FD1C480078C8
:104E8000022802D1C82000F033FA01F06DFC02F0D4
:104E900035FB18484421807A174B4143CA18272113
:104EA000895C012915D002F0CBFB02F08BFB64205A
:104EB00000F01EFA114908200881FF20F53000F0AB
:104EC00017FABFF34F8F0F490D48C860BFF34F8FDC
:104ED000FEE7142141434000C018FF30C918C1301B
:104EE0003232C831008E02F0DFFADEE710BD00007A
:104EF000800400205C1F00207C1D0020200400484E
:104F00000400FA0500ED00E0F8B57D211A4C090116
:104F1000E1801A4B224611461E78093192880025FD
:104F20000B2E0DD0A7780126002F15D05054A08845
:104F30009021401CFEF7DCF8A180E6706570F8BD9A
:104F40005054A0884121401C0901FEF7D1F8A180EE
:104F5000052020726570F8BD094A5228117801D1E8
:104F6000502903D04F2804D1522902D1A6700A211A
:104F700019701070A580F8BD04070020241D0020C2
:104F8000160100200549C888002806D0401E80B2BE
:104F9000C880002801D10320087070470407002052
:104FA00070B5164D687AA52805D00121EE2009F0CC
:104FB00013FB012070BD687BA97B00024018104ED6
:104FC00080B270810D490F31415C0A020B491031EA
:104FD000415C51188CB2401D81B208480A30FFF77D
:104FE00057F9844205D00421EE2009F0F5FA01209A
:104FF00070BDA87A3070002070BD0000040700204A
:10500000200B002005498888002806D0401E000497
:10501000000C888001D14880088070477A02002007
:1050200010B5054C6079AA2805D100F019F800F0F8
:1050300005F80020607110BD601D002010B5064805
:105040000024447084701421801DFEF784F8034806
:105050004480048010BD0000601D00207A02002002
:1050600010B51E210748FEF776F806492020887003
:1050700008210548FEF76FF8024824211E30FEF78C
:105080006AF810BD340C00208002002070B5303862
:10509000C0B21F4B0025D97B002911D004290FD0A5
:1050A0004A1E1C4E5200B25A1C694243A2181A6191
:1050B000491CD973184C2088824216D89D6023E081
:1050C00000280FD0C11E032921D3124A4100921D8E
:1050D000515A1961032802D20120D87314E002202A
:1050E000D87311E09D601D610EE000204100615AFF
:1050F0008A4208D08A4202D2401EC0B203E0401C5D
:10510000C0B23328F2D398600620FFF729F870BDAB
:10511000A0040020CCFD00081600010810B50124F1
:105120002404204600F05AF8002804D0204600F05D
:1051300003F80AF049F910BD0149486070470000C2
:1051400000000240002904D00168012211430160DF
:1051500070470168014A114001607047FEFF00007E
:1051600001681C4A114001600021016041608160BA
:10517000C1601949184A0839904204D148680F2281
:10518000104348607047144A1432904204D1486872
:10519000F0221043486070470F4A2832904205D1F0
:1051A00048680F2212021043486070470A4A3C3296
:1051B000904205D148680F2212031043486070479F
:1051C000054A50329042FAD148680F221204104327
:1051D00048607047FEFF00000800024001460020C2
:1051E000024A12680A4200D00120704700000240C3
:1051F000002A03D002680A430260704702688A43AB
:105200000260704730B503680C4A13400C6A8A6824
:105210004D6922430C692C4322438C692243CC699B
:1052200022434C6A22438C6A22431A430260CA68B2
:1052300042600A6882604968C16030BD0F80FFFF2C
:1052400070B50126F603344640041649400C8880A8
:1052500002F07EFE054614480068C16909790329F9
:1052600001D105246403114989782030C0780028D1
:1052700001D01431C9B24906490E2143512007F02B
:1052800091FB0B49072007F08DFB2905090D08202C
:1052900007F088FB2802000D8119082007F082FB27
:1052A00070BD00001C0100207404002022020020B8
:1052B000D70A000010B506F097FC0C4900200883BF
:1052C0008868002810D0D3280ED0692805D8693006
:1052D00088600220FEF744FF04E0693888600120FE
:1052E000FEF73EFF04F0F8F910BD0000A004002016
:1052F00010B5034600227D24E40004E0204600F0BF
:1053000005F8521C92B29A42F8D310BD0A214843C4
:1053100080B20146401E80B20029FAD170470000D9
:105320000EB50C484078072801D3032002E004287A
:1053300000D90420094B800018580021064A019228
:10534000029100900A2318220321852003F0D0FE49
:105350000EBD0000F8040020FFFF0000FC0000204C
:1053600070470000FFB58DB0002009900A900B90A7
:105370000C90514804900F9802F064FF0546002DF0
:1053800001D14E4804900F994D4800294FD00D99F6
:1053900001294CD0072108915421079167210691DA
:1053A000082105917524474F468E04980090601E91
:1053B00081B207200A23092203F094FE424904988F
:1053C000009701910290082307222146059803F0D7
:1053D0008FFE0F98442148433C493D4F44182720F5
:1053E000005D002835D00E9800284AD00E9801287C
:1053F00047D0721C37A109A80AF0CEF92B4609AA9A
:105400000799089803F07EFE0E98022809D010989C
:10541000012848D0A0692B4602680799089800F037
:10542000D3F80F990D9800F0DDFD11B0F0BD072104
:1054300008911C2107912F210691082105913D24F7
:105440000F99012902D0264F068EAEE71D4F468EDA
:10545000ABE72448007A00280ED023A109A80AF05F
:105460009BF90020019502900C2309AA0097069948
:10547000089803F0C8FEC7E71FA109A80AF08CF935
:10548000EFE72046323009A901F084FD0128BBD1A5
:105490000020019502900C2309AA0097069908980C
:1054A00003F0B1FEB0E7E0692B460268079908985F
:1054B00000F08AF8B5E70000A3E0000014A50000A2
:1054C0003C1F0020760D0108FFFF00007C1D00201E
:1054D0009B0500002043482D253033640000000068
:1054E0006F0D0108AC1C0020C6B5C2CAC4A3CABD5A
:1054F000202020200000000056464F204D6F64659C
:105500002020202000000000F0B585B003460E46A4
:10551000002003900490104602F094FE044684207C
:105520000290002A22D0012B20D05C2509231522CD
:1055300029460094029803F0D5FD1C4FBE421BD1B2
:105540001BA103A80AF028F9042303AAA91C0097A9
:105550000194029803F0ECFE2946092315220E312E
:105560000094029803F0BEFD05B0F0BD2425012B88
:10557000DCD1FF248934D9E70FA103A80AF00CF984
:10558000042303AA294600970194029803F0D0FE51
:10559000721C0BA103A80AF0FFF82946234603AAB0
:1055A0000E31029803F0FBFDDEE70000FFFF000074
:1055B00056464F2000000000434820200000000015
:1055C0002530336400000000F0B5054685B00E4676
:1055D00010461F460024019402940394009410493D
:1055E000FDF786FD0B4602460EA101A80AF0D4F88D
:1055F0006946C87A0870087B4870CC728C703B464C
:1056000001AA3146284603F07DFD314628463B4637
:105610006A460831643003F0C2FD05B0F0BD0000F9
:10562000A0860100253033642E253035640000004B
:10563000704700000EB500210C4A00280AD00C4823
:10564000009202910190092310220321262003F0E9
:105650004FFD0EBD074800920291019009231022D0
:105660000321262003F044FD0EBD0000B40C010808
:10567000FFFF0000E318000008B500F0F1FB012077
:105680000090044BA0221021002007F049FB00F0FD
:105690000FFA08BDFFFF0000FEB50024009401943E
:1056A00002941F4908698A781E49002A0AD002001C
:1056B00011D0FDF71DFD0B4602461BA11C480AF048
:1056C0006BF8FEBDFDF714FD0B46024616A1184807
:1056D0000AF062F8FEBD2D2207216846FDF734FD71
:1056E0002E206946C87000210020124B6D465A7862
:1056F0000BE0032801D1491CC9B21E180F46B67928
:10570000491CC9B2EE55401CC0B28242F1D868466D
:10571000C471102269460648FDF728FDFEBD000051
:10572000A0040020A086010025642E2530356400E9
:10573000760C0020601D0020FEB52D206946087003
:10574000487088700026CE7000220020124B6D46F3
:105750005C780AE019188979302901D1002A0ED025
:1057600001222F187970401CC0B28442F2D86846DA
:10577000C6700A48807A002805D05C2104E0202108
:105780002F187970EFE72421FF2389336A4684209C
:1057900003F005FDFEBD0000601D00205C1F002021
:1057A0001FB52D220F216846FDF7CEFC0349684640
:1057B0004A78891DFDF7B6FC1FBD0000601D002062
:1057C000FEB50024009401940294214E0A2135690B
:1057D0002846FDF78DFCB2781E49002A0AD0002D1C
:1057E00011D0FDF785FC0B4602461BA11C4809F0B1
:1057F000D3FFFEBDFDF77CFC0B46024616A1184800
:1058000009F0CAFFFEBD2D2207216846FDF79CFC6A
:105810002E206946887000210020124B6D465A7870
:105820000BE0022801D1491CC9B21E180F46B679F7
:10583000491CC9B2EE55401CC0B28242F1D868463C
:10584000C471102269460648FDF790FCFEBD0000B9
:10585000A00400201027000025642E2530346400A9
:10586000760C0020601D00201CB50C480C49007906
:105870000A7890420BD00870002809D0012809D07E
:10588000032809D007A208A1684609F085FF1CBDBE
:1058900006A2F8E706A2F6E706A2F4E7601D0020DC
:1058A00083040020313233002573000061626300FD
:1058B00041424300205059007FB52D22072101A805
:1058C000FDF742FC2E206946C87100210020184BCC
:1058D00001AC5A780BE0032801D1491CC9B21D184C
:1058E000AE790D46491CC9B26655401CC0B2824211
:1058F000F1D800206A46D0722D211170517090703D
:1059000007200C49897A002901D0542400E01C2486
:10591000FF2589352B4601AA214603F0F3FB2146DA
:105920002B466A4608316B2003F039FC7FBD00002E
:10593000601D00205C1F0020FEB50024009401942F
:1059400002941E4908698A787D21C900002A0AD07C
:10595000020011D0FDF7CCFB0B46024618A11B48F4
:1059600009F01AFFFEBDFDF7C3FB0B46024614A16A
:10597000164809F011FFFEBD2D2207216846FDF7EC
:10598000E3FB00210020124B6D465A780BE0032800
:1059900001D1491CC9B21E180F46B679491CC9B2BB
:1059A000EE55401CC0B28242F1D86846C471102244
:1059B00069460648FDF7DAFBFEBD0000A0040020A2
:1059C000253033642D25303364000000760C002030
:1059D000601D00200EB500210C4A00280AD00C489A
:1059E0000092029101900A23092203216D2003F005
:1059F0007FFB0EBD07480092029101900A23092205
:105A000003216D2003F074FB0EBD0000410D010861
:105A1000FFFF0000E31800000EB500210C4A00282B
:105A20000AD00C4800920291019009231022032110
:105A3000412003F05DFB0EBD0748009202910190EA
:105A4000092310220321412003F052FB0EBD000068
:105A5000D40C0108FFFF0000E31800003EB500244D
:105A60008023A02221462046009403F03BFB0C48F3
:105A70000A4D202300901A462C21019502944420BF
:105A800003F036FB0194102306A250212820009534
:105A9000029403F0B8FB03F0F1FA3EBDFFFF0000F3
:105AA0007D0D010850726F6772616D2E2E2E000001
:105AB000F8B5002002F0C6FB0246012002F0C2FB4E
:105AC000044600923723A0221121002003F00AFB94
:105AD0003723A02249210020009403F003FB2A4829
:105AE0002A4DC0792A4C2B4E012835D000231A4666
:105AF00001211846FFF736FC002231461046FFF719
:105B000003FD0021084600F019FA00221146104654
:105B100000F044F8012000903346A02248210020E4
:105B200007F0FEF818484030C07A012820D0002342
:105B3000012211461846FFF715FC012231460020CC
:105B4000FFF7E2FC0021012000F0F8F9002201211A
:105B5000104600F023F8F8BD0023697B1A4618466A
:105B6000FFF700FC0022218E1046FFF7CDFCC8E7AE
:105B70000023A97B01221846FFF7F4FB618E012266
:105B80000020FFF7C1FCDDE79C1D0020AC1C0020BD
:105B90003C1F0020FFFF0000704700007CB503465B
:105BA00008461446002828D0012B26D0772502F07D
:105BB00049FB134900910190042312A229465A205F
:105BC00003F0B6FB282060430A21FDF791FAC4B226
:105BD0000E4800902820001B82B2ED1C2046A9B27E
:105BE0000423733003F07EFA09480090A9B204231D
:105BF0002246732003F076FA7CBD3F25D7E70000EC
:105C0000FFFF0000525353490000000014A500009C
:105C1000A3E90000704700000EB500210C4A0028DF
:105C20000AD00C480092029101900A230822032115
:105C30005B2003F05DFA0EBD0748009202910190CF
:105C40000A23082203215B2003F052FA0EBD000054
:105C5000660C0108FFFF0000E318000070B586B075
:105C60000024114E0025204612214843315C0829AA
:105C70000FD08019102300901A460CA101A809F03A
:105C80008BFD68460575641CE4B2022CEBD306B0AC
:105C900070BD8019112300901A4604A101A809F0D3
:105CA0007BFD68464575EEE7520C0020252D2A2E17
:105CB0002A730000F0B589B0074600242022102185
:105CC0006048FDF741FA5F481438FDF779FA5D4EF8
:105CD0001E3E7179090140180490314610220E31A0
:105CE000049808F085FB574D012F13D03179707956
:105CF0002F46491E0C3F88421CDA0498102205A941
:105D0000103008F075FB06AB3A464FA1284609F063
:105D100043FD14E000204E4F4E4A3B7805E0391811
:105D20004978895C2954401C80B28342F7D800210D
:105D3000295404E03A4648A1424809F02DFD414863
:105D4000202210211230FDF7FFF93E4900202031BA
:105D500088703046767F3B4F41781B3F02291FD029
:105D6000F81EC0780A21FDF7C3F90A214843311A09
:105D7000CA0F5118C9030E0C052E00D90526797ECD
:105D80003A7E09021143354A801808180A226946EA
:105D900008F02EFB2B481E38417801292FD03BE01C
:105DA000284807211E38C078FDF7A2F9C100081A5B
:105DB000311A8CB2072C00D90724797E3A7E090269
:105DC0001143264A801808182246694608F010FB3D
:105DD0000020694605E043000A5C5B19DA74401C48
:105DE00080B2A042F7D3174807211E38C078FDF7CC
:105DF0007FF9082049004919887409B0F0BDC078BE
:105E00000A21FDF775F94808002808D0002442004F
:105E1000082180184019417400206F460FE00124CA
:105E20000820A874F8E743004100C3181B197A5CE6
:105E30005B199A74C9194978D974401C80B2B04270
:105E4000F1D3DAE7520C00202573202573000000FF
:105E500080020020E201010825730000008409008F
:105E600038B500201023A0220146009003F03AF933
:105E70000E4CA07800F0E6F90D480078022810D00A
:105E800001280ED02079FFF7D5FB0020FFF7C4FDD5
:105E9000607AFFF7C1FEE07EFFF79CFDFFF740FA56
:105EA00038BD0020FFF7C6FBEFE70000AC1C002068
:105EB000241D002070B51E4D1E4C286820304178EE
:105EC000A07A002913D0012915D0002100F036F85E
:105ED00028682030C079012811D0A07A002820D06D
:105EE00001231A4619460020FFF73CFA70BD07212E
:105EF00000F024F8ECE7052100F020F8E8E7A17AAB
:105F00000D48002906D0817B01231A460020FFF7A7
:105F100029FA70BD417B002201231046FFF722FAC7
:105F200070BD0123002219461046FFF71BFA70BD11
:105F3000740400205C1F0020AC1C0020FEB50F463E
:105F400000281DD075260120B51C0090A9B2224B57
:105F50005422132006F0E4FE0024012000901F4884
:105F6000AAB2005D1C4B314606F0FFFE641CE4B291
:105F7000082CF2D33F256D01072F03D3162708E025
:105F80003D26E0E7052F01D3102702E0002F0ED0B9
:105F90000827132001900024B61DBC420AD2B1B2DA
:105FA000032302220095019803F09CF80AE00027E1
:105FB0000B4DEEE70A480090B1B20323022201988C
:105FC00003F090F80198C01C80B20190641CE4B208
:105FD000162CE2D3FEBD0000FFFF0000B402010852
:105FE00014A50000F0B585B003460A46104602F03D
:105FF00029F90446002A27D0012B25D04B200390F5
:10600000442042437D487E4D16183746203670782E
:1060100002281CD0012825D07A48009007230522A9
:10602000019502942D20039903F062F8307800283E
:1060300023D07548072300901A4601950294392011
:10604000039903F055F81FE013200390D8E76F4839
:10605000009007230522019502942D20039903F057
:1060600047F8E3E76A480090072305220195029468
:106070002D20039903F03CF8D8E707231A46009433
:106080003920039903F02EF8307A012835D0022800
:106090003ED007231A4600944720039903F022F8C4
:1060A000307C01283FD0022848D0072305220094E5
:1060B0005520039903F016F8B8695649006840184E
:1060C0005549884245D25548009007230D22019535
:1060D00002947320039903F00BF807231122009414
:1060E0001520039902F0FEFF07230B220094612084
:1060F000039902F0F7FF05B0F0BD4948072300906F
:106100001A46019502944720039902F0F1FFC7E770
:106110004448072300901A460195029447200399AA
:1061200002F0E6FFBCE740480090072305220195F6
:1061300002945520039902F0DBFFBDE73B48009035
:1061400007230522019502945520039902F0D0FF00
:10615000B2E7B078012828D007230D2200947320DD
:10616000039902F0BFFF32480078012828D0F8696F
:106170000079002827D001282DD02E480090072331
:106180001122019502941520039902F0B1FFF078D5
:1061900080072BD0284800900723112201950294F4
:1061A0006120039902F0A4FFA5E72448009007238B
:1061B0000B22019502947320039902F099FFD2E714
:1061C000B8690079D5E707231122009415200399B7
:1061D00002F088FFDBE71A4800900723112201959F
:1061E00002941520039902F083FFD0E707231122C0
:1061F00000946120039902F075FF7CE77C1D00206C
:10620000FFFF0000800C01083A0D0108760C010820
:106210007B0C010880345BFF80B92A00A70C0108C1
:10622000220D0108290D0108300D0108350D010866
:1062300080040020850C01085E0D0108530D010843
:10624000960C01080EB500210C4A00280AD00C4813
:10625000009202910190092317220321062002F0E7
:1062600047FF0EBD074800920291019009231722B3
:106270000321062002F03CFF0EBD0000F40C0108D3
:10628000FFFF0000E318000070B50D461446074EEE
:1062900000213046FEF756FF044A183AD461556291
:1062A00001213046FEF74EFF70BD0000580002404D
:1062B00010B50B480078012806D0022804D1084800
:1062C00024211E30FCF747FF002007F0E1FE0548BF
:1062D0000078002801D0012010BD002010BD000072
:1062E000340C00208002002070470020704700001E
:1062F00010B505200B221649400308F079F8144820
:10630000417A052901D904214172817A062901D9EE
:1063100005218172C2790121052A00D9C171027A51
:10632000052A00D901720A49FF2241323E3109484B
:1063300008F05EF810220849084808F059F80649A4
:10634000064810221031103008F052F810BD00003D
:106350000405002020A000008206002080A100008B
:1063600070477047F8B5044601265B4F5B4D042C1F
:1063700015D05B480090052C1ED0062C3ED0594805
:106380008179427908021043012C5CD0022C5AD04A
:10639000002877D004F0F6FA002873D098E02E7029
:1063A0006E700920A870FF20E8706E74387B64213D
:1063B000401C4843E8828BE000984421807A052203
:1063C0004843494940182030807948490001401825
:1063D000424908F00DF82878FF287BD00E2028725B
:1063E0003E4903220C3908461530FCF79BFE6E74BB
:1063F000387B6421401C4843E88269E0394C3748C7
:106400002034A278E11CFCF78DFEA078102801D280
:10641000FF21295403280DD130480C38417A3448E3
:10642000405CE8702D4903220C39281DFCF77AFEE8
:10643000FF20E8710020A0706E74387B6421401C3E
:106440004843E88244E0002803D004F09BFA002887
:106450003ED1012C0FD0102226492048FCF762FEC5
:106460002878FF2836D0387B6421401C4843E882D6
:106470006E742DE006E01F49102210391748FCF712
:1064800051FEEDE700984421807A032248431649E3
:106490004018203080790001411932310F48FCF753
:1064A00041FE0E480C38417A1148405CE8700B49B7
:1064B00003220C39281DFCF735FEFF20E8712878EF
:1064C000FF2807D0387B6421401C4843E8826E7463
:1064D00000F046F8F8BD0000AC1C002010050020BC
:1064E0005C1F0020241D00207C1D002020A0000037
:1064F0001CFE00089206002010B50446112C03D3A0
:10650000012006F029FA02E0012005F07DFD114886
:10651000407AC00708D0012007F06EFE042005F085
:10652000E1FF032006F0E8F8112C06D30A48001911
:106530002038C07B06F0AAF907E0074AA0000A321B
:1065400081184988105A06F021F9044901208877FA
:1065500010BD0000AC1C002018FE0008241D002007
:106560007FB535A003C80391029033A003C8019101
:106570000090334E002534460C3408E0E18A0029AF
:1065800005D1012807D002281CD065742575607CD0
:106590000028F3D17FBD2575A574012005F034FDD9
:1065A000A07C205CE0742748407A800708D504204E
:1065B00005F098FFF12006F09FF8012007F01CFE7F
:1065C00002206074207D002824D00021084606F0B7
:1065D000DDF8307A6946085C0A214843E082257577
:1065E000A07C401CC0B2A074215CE174FF2901D0E2
:1065F0001028CCD303206074A5740A20E082002008
:1066000007F0FAFD06F082F9002006F075F805F0B3
:1066100011FDBCE7E07C0C4A800081184988105AC3
:1066200006F0B4F8F07902A9085C0A214843E08238
:1066300001202075ABE70000050A141E2832000077
:1066400004050020AC1C002022FE000870B50120CB
:1066500005F0DAFC012007F0CFFD042005F042FF31
:10666000F12006F049F811240D4DA0004119498888
:10667000285A06F08BF85020FEF73AFE641EE4B26A
:106680000F2CF2D8002007F0B7FD0021084606F0D5
:106690007DF805F0CFFC002006F02EF870BD00005C
:1066A00022FE000806494422887A064B4243D2184B
:1066B000054B1A60C8720549002008707047000039
:1066C0005C1F00207C1D00207404002010010020AD
:1066D00010B505F07BFA00F047F8064C032120794D
:1066E000401CFCF705FD2171FEF7C6FF0320FDF7F6
:1066F00037FD10BDAC1C002070B5164C607800282A
:1067000022D0A07800281FD1FFF7EFFD00281BD171
:106710006420A070104D2878012815D1FEF798FB51
:10672000012811D0217800220C4801290DD0012127
:106730002170837A9943C172C07A44214843084941
:106740004018084908602A7070BD2270817AC172B1
:10675000F2E7000010010020810400205C1F0020EF
:106760007C1D00207404002030B50B4C00252078DF
:10677000012800D1E570FFF795FF08480849807AA5
:1067800040004018FF30C130018E04482038818617
:1067900065700448057030BD100100205C1F0020AA
:1067A0007C1D00208104002006480079012808D1C2
:1067B00005480078002804D10448012141700021D7
:1067C000C1707047AC1C002088040020100100201C
:1067D00010B50C4C2078002803D00B480078022814
:1067E0000BD00620FDF7BCFCFFF7BEFF0920207090
:1067F00005F0ECF9FEF71CFF10BD0020FDF7B0FC22
:1068000010BD0000241D00208104002070B505F09B
:10681000DDF9FFF7A9FF0B4CE078A0760020E070CF
:1068200002216170A0702083E082E0730125257051
:1068300005F0DAF904480570E07803F0AFF802F0EB
:106840004BFF70BDA0040020241D00202B4C002510
:1068500025702B490B2008702572E580294845607A
:106860000126022728480178002914D00570E08805
:10687000002805D0401E80B2E080002800D127709B
:10688000207A002805D0401EC0B22072002800D116
:10689000E670FEF7E3FAE078002817D0E570FEF71F
:1068A0007FFB002810D12078002802D001280BD1CE
:1068B00008E014480078022806D12670592107F014
:1068C0008BFE01E001F088FDA580CBE7207803284E
:1068D00007D125706078401CC0B26070032800D3D7
:1068E000277020780228BDD1002002F06FFD002023
:1068F00002F04CFDA58003F0CFFF0000040700204C
:10690000241D0020200B00207904002010B524480D
:10691000407E00280AD123480078022806D0FFF7DD
:1069200023FF214C2078012804D005E00020FDF74A
:1069300017FC10BD02F0FAFF05F048F902202070A4
:106940001A4A10701A48C37F01462039012B12D011
:10695000487809780002084350805088154940184B
:10696000FF21B031884212D3507800280CD0114852
:10697000404250800BE0807F40004018C17883780F
:10698000080218435080E8E75F20C000508004F000
:106990009DFB00F0F3FF0621492008F005FD10BD26
:1069A000AC1C002081040020241D00209204002043
:1069B000041D002076FDFFFF10B5002000F0F6F961
:1069C0000D480121017603240470C07D012806D002
:1069D00005F0E0FF05F09AFFFFF7C6FE10BD0120AD
:1069E00002F0D4FC012005F087FE012007F004FC32
:1069F0000248047010BD0000241D00208104002006
:106A0000F8B505F0AFF9FFF729F83B4D00242C70DD
:106A10003A4F03263878002802D03C70FEF7B2FACD
:106A2000E878002851D0EC70287801280ED0022890
:106A300020D00328EED00428ECD0FEF7E7F9012897
:106A4000E8D104F027F801202870E3E7687A4628A7
:106A500003D0442807D0AC80DCE704F025F8AC80F4
:106A600002202870D6E726490B200870AC70AC8055
:106A7000EC80F8BD687A522804D0572814D04528F5
:106A80001ED020E0A8880428C4D3002004F038F8E1
:106A9000297B091DA9801848093008F08FF9AC80BE
:106AA000022002F093FCB5E7A8884428B2D3012065
:106AB00004F026F803F0EEFF022002F067FCA9E7DD
:106AC0002E7003F0E7FFAC80A4E72878042807D1F4
:106AD0002C706878401CC0B26870032800D32E70F8
:106AE0002878032896D1002002F070FC002002F0E4
:106AF0004DFCAC8003F0D0FE040700207904002098
:106B0000241D002010B5FFF72FFE084C2078012827
:106B100001D102F00BFF05F059F80620207004495E
:106B20000120087004F0C2F810BD0000241D0020F0
:106B3000BC040020F8B511213448FCF70CFB344D9F
:106B4000287A01280BD033A0102300901A4635A1D3
:106B50002E4808F021FE364C364E374F1FE037A046
:106B6000102300901A462FA1284808F015FEF2E7DE
:106B7000FCF71CFE3078002801D0FCF701FE3248FB
:106B80000078002801D0FCF78FFE207809280BD070
:106B900006280FD0387801280BD1FDF76BF92B4868
:106BA00000780028E6D0E3E702F0C0FE0220FDF7FF
:106BB000D7FAF8BD0120FDF7D3FA287A012815D0BD
:106BC00023A0102300901A4616A1104808F0E4FDF7
:106BD00023488068012812D005F074F805F016F8F3
:106BE000FF20F530FEF784FB03F04AFE1DA01023C2
:106BF00000901A460BA1054808F0CEFDE8E704F026
:106C0000CBFF05F05FF805F001F8E9E7760C00200E
:106C1000AC1C00205375726520746F20526573653B
:106C2000743F0000252D2A2E2A730A0D0000000053
:106C30006A0200207E040020241D0020C8B7C8CFAF
:106C4000B3F5CABCBBAF3F007F0400207C0400202A
:106C5000506C6561736520576169742E2E2E00009B
:106C6000A00400202020C7EBB5C8B4FD2E2E2E2096
:106C70002000000010B502F059FEFFF775FD00205E
:106C800007F0BAFA002005F037FD002002F07EFB85
:106C90000B48052303700B48012242740021017048
:106CA000017443770848017008480270072005F016
:106CB0001FFE0121084604F061FA06F003FE10BD34
:106CC000241D0020CC04002080040020EF000020C0
:106CD00038B50020009004F087FF204C6078002831
:106CE00018D02046017FC27E0802E1781043401888
:106CF0001B4940180222694607F07AFB617819485F
:106D000001290AD04178C078814218D30720FDF7C5
:106D100027FA38BD012060701AE04178C078401E23
:106D2000814203DB0720FDF71BFA38BD6846007877
:106D300001F074FD6846407801F070FD03E068469C
:106D4000007801F06BFDFEF78BF9022007F0A0F947
:106D50000020FEF7AFFF02F095FC38BD340C002098
:106D600000840900601D002010B5FFF7FDFC0C4CED
:106D70002078012801D102F0D9FD04F027FF09484D
:106D80000021427A0A2A00D3417207202070064867
:106D9000017008F041FC0621492008F005FB10BDF8
:106DA000241D0020CC1C00208104002070B5044666
:106DB00004F00CFF012000F06DF800F089F8084D98
:106DC0002978022905D100F029FE002C01D000F01D
:106DD000BBF82878012801D102F0A8FD70BD0000A1
:106DE000241D002010B50649002008700520FDF77D
:106DF000B7F904F0EBFEFFF7B7FCFEF73DFC10BD62
:106E0000241D002010B50D490020087004F0DEFE9E
:106E1000FFF7AAFC002007F0EFF9FEF72DFC084C65
:106E20002078012801D004F041F90220207000F000
:106E300063FB05214A2008F0B7FA10BD241D00208D
:106E40009204002010B5094800240470047604F070
:106E5000E7F9002007F0D0F905480021007B04F095
:106E60008DF904480470FEF707FC10BD241D0020B6
:106E70005C1F00208104002010B505490020087027
:106E800004F0A4FEFFF770FCFEF712FE10BD000038
:106E9000241D002070B505460949087805280ED143
:106EA00000240C700748047007490120087005F0A1
:106EB000DBF8002D03D005480470FEF7DDFB70BD44
:106EC000241D00208104002080040020EF00002009
:106ED00010B50A49087807280ED109480068806172
:106EE0000020087004F072FEFFF73EFCFEF7E0FDA4
:106EF00005214A2008F058FA10BD0000241D00208A
:106F00007404002002480169802211430161704726
:106F100000200240034A116889088900014311607A
:106F2000704700000020024004480169090603D5AB
:106F3000034941600349416070470000002002405E
:106F400023016745AB89EFCD0248002101708180A4
:106F5000704700009204002010B504F037FEFFF7E0
:106F600003FC0A49C87888760A20C87037224A701C
:106F700000228A700A83CA82CA730A70044A0121F5
:106F8000117002F02BFD02F04FFC10BDA004002098
:106F9000241D00207FB503460D4600240094019473
:106FA000029403941878FF281ED000281CD00020DB
:106FB00069461A5CFF2A06D0002A04D00A54401CF5
:106FC000C0B20C28F5D320220C212846FCF7BCF8CF
:106FD0006846FCF7D8F8024669462846FCF7A2F84E
:106FE0002C73012004B070BD0748007A012805D039
:106FF00006A1684608F0D0FB0120F3E705A168462A
:1070000008F0CAFBF8E70000AC1C00204E4F204EF1
:10701000414D4500CEB4C3FCC3FB20000E20014609
:10702000401E80B20029FAD170471CB540010021F2
:10703000009101910822694607F08AFA1CBDF0B55B
:1070400089B00D46FF262A4601A907F0D1F9002094
:1070500001AA10E001240023115C214203D0C000EA
:10706000C01809B0F0BD6406240E5B1CDBB2082B0F
:10707000F3D3401CC0B2A842ECD33046F1E7000085
:10708000F7B5154B9D44C1090D034406640E012755
:107090003F036E463A463146284607F0A9F928468E
:1070A00007F04CF9600184190C48142268444168C7
:1070B0002046FCF737F809481434684481680C22EC
:1070C0002046FCF72FF83A463146284607F040FAAA
:1070D000024B0C339D44F0BD00F0FFFF0010000098
:1070E00030B589B00F24240301226946204607F0F9
:1070F0007FF968460178FF2949D01022824920464D
:1071000007F076F910228149814807F071F980482B
:1071100010228049103007F06BF97D4810227E491B
:10712000703007F065F97A4810227C49803007F00A
:107130005FF9774810227A49903007F059F974487E
:107140000A227849B03007F053F971480A2276498B
:10715000C03007F04DF96E4810227449D03007F066
:1071600047F96B4810227249E03007F041F9F120ED
:1071700010227049000207F03BF910226E496F4857
:1071800007F036F910226E496E4807F031F900F029
:107190001FF96D486D49007808760346303B0022A0
:1071A000052B03D80007000F087600E00A76684830
:1071B000014614313AC9089505AD1AC50169C06880
:1071C0000291019061486946097D203881726946C3
:1071D000497EC1726946897F0173009205AB694699
:1071E00008780A25195C0C0909076C43090F611816
:1071F0001954401CC0B200901028F0D36C46607D3A
:107200007D21C9004843A17D0A235943401881B21A
:1072100050480180E37D7D24E40063436C46247E76
:107220006C431B199BB243804B4C61430161214667
:107230004B4343616C46A17E7D23DB005943E37ED3
:107240000A246343C91889B281806C46237F7D2458
:10725000E40063436C46647F6C431B199BB2C3809C
:107260003D4C6143816121464B43C3616C46E17FE4
:107270007D23DB00594308AC23780A246343C918F3
:1072800089B2018108AC63787D24E400634308ACD3
:10729000A4786C431B199BB243812F4C614301625C
:1072A00021464B434362009201AB6A4611780A259E
:1072B0005A5C140912076C43120FA2185A54491C45
:1072C000C9B200910829F0D36B4659797D22D200CA
:1072D00051439A790A235A43891889B281816B46AE
:1072E000DA797D23DB005A436B461B7A0A24634319
:1072F000D21892B2C281184B5943816219464A434F
:10730000C26209B030BD000022010020320100201D
:1073100010F0000042010020A2010020B201002074
:10732000C2010020E2010020F20100200202002040
:1073300012020020700B0020800B002010F10000D2
:107340002202002010F200006D020020441D0020E7
:10735000E4010108040C0020102700007047000021
:1073600030B599B060216846FBF7F5FE09252D037D
:1073700006212846FFF763FEC1B22A291BD26020EE
:107380004143104808186022694607F031F810A8F8
:10739000C48B18945E216846FCF77AFFA0420AD19C
:1073A000382269460848FBF7BDFE10A91EC90748E8
:1073B0001EC019B030BD284606F0C0FF04F026FC00
:1073C000F7E7000010900000AC1C0020B00B00207C
:1073D0007047000030B585B00024009401940294F9
:1073E0000394072020214003FFF729FEFE2814D232
:1073F0000C49000140181022694606F0F9FF684662
:10740000C58904950E21FCF743FFA84205D1064823
:1074100069460988018205B030BD034820380486DA
:107420004486F8E720E000005C1F002038B50446E1
:1074300008210D032846FFF702FEC1B23D2926D2DE
:1074400042204143154808184222154906F0D0FF52
:1074500013496A463031087C1070487C50704021D6
:107460000F48FCF715FF6A46118888420FD1012C9E
:1074700005D020220A490B48FBF754FE38BD0849C5
:107480000848202220312030FBF74CFE38BD28462A
:1074900006F054FF04F016FC38BD00001080000018
:1074A000C10B0020041E002070B588B005460E46B2
:1074B000144620216846FBF74EFE0E48808E4001A0
:1074C0002022694606F094FF142231466846FBF7F5
:1074D00061FE002807D131460C2214312046FBF70B
:1074E00059FE002804D0224631462846FFF7C8FD41
:1074F00008B070BD3C1F002070470000F0B5AFB071
:10750000602114A8FBF727FE09252D030621284634
:10751000FFF795FDC4B23822254914A8FBF702FEF7
:10752000244824AE01460EC9C0680EC627905E21CD
:1075300014A8FCF7ADFE07462D9020A9C8851E4E65
:10754000292C2BD2602060438619304602222CA9B8
:107550005E3006F04DFF20A8008EB8420BD15022BD
:107560006946304606F044FF502214A96846FBF7EE
:1075700011FE002810D030466030602214A906F0B9
:10758000E7FF60070D49400F085C2E90E0084019A6
:1075900001222EA906F0DCFF2FB0F0BD284606F030
:1075A000CDFE602214A9304606F0D2FFF4E70000B9
:1075B000AC1C0020B00B002010900000E801010876
:1075C0007047000070B586B00020009001900290D6
:1075D000039007256D0320212846FFF730FD044660
:1075E00014486946008A08800E216846FCF750FE60
:1075F00004906946C881104EFD2C12D2601C000117
:107600008019102206F0A4FF60070C49400F085CA7
:107610000590E0084019012205A906F099FF06B07F
:1076200070BD284606F08AFE10226946304606F0F4
:107630008FFFF4E75C1F002020E00000E801010854
:107640007CB5334E334C01283BD03546203D0028D5
:1076500044D0FF2809D020222946A01AFBF762FD5A
:10766000202231462046FBF75DFD2A484021203884
:10767000FCF70EFE00902748694610300978017427
:1076800069464978417408210D032846FFF7D7FC65
:10769000C4B2214E3C2C30D2601C42214843801998
:1076A0001C494222203906F053FF60071B49400F56
:1076B000085C0190E0084019012201A906F048FF8A
:1076C0007CBD202231462046FBF764FD0028F7D020
:1076D000202231462046FBF725FDC6E70D48202233
:1076E00029462038FBF756FD0028E9D0094820221A
:1076F00029462038FBF716FDB7E7284606F01EFEA0
:10770000044942222039304606F022FF7CBD0000A9
:10771000241E0020E10B002010800000E801010879
:1077200010B50548032101707D21C900818003F057
:10773000FBFC00F071F910BD92040020094841786B
:10774000002902D00849418002E05F21C900418040
:10775000022101700A218180044940880870000AD2
:1077600048707047920400208A020000E41C002048
:1077700070B52C4C3221217061784A1C6270091955
:10778000887161780225012901D0022909D933289D
:1077900004D965703021A171E07102E001216170AE
:1077A000A0713038C0B22049C979002908D0FCF74F
:1077B0008FF961782046022906D000F0E3F870BD09
:1077C0000020FCF7CDFCF4E7164A0023921D8B54F1
:1077D000801DFBF715FDC4B204F0F8F9641E1F2CE0
:1077E0001AD8E1B211484A001018C2788378120200
:1077F0001A430F4BD218FF23AF339A420FD80B4ACC
:1078000020329177C178807809020143094841808C
:1078100005700A21818002E04820FCF765FB00F03A
:1078200093F870BD601D0020AC1C0020E41C0020FB
:1078300076FDFFFF92040020F8B5184D0026AE72C9
:107840000024174F6000C019C178827808021549DA
:1078500010434118FF20AF30814206D80122214653
:10786000A81D01F005FE0120A872641CE4B21E2CC4
:10787000E8D30B4C2034A07F1E2800D3A677A87A2B
:10788000002809D0A07FFDF7C5F9002803D1A07F0B
:1078900006F07FFBA077F8BDE677F8BD92040020E4
:1078A000E41C002076FDFFFF70B5154B154C184603
:1078B00082881D78501E217880B2012D05D00229C2
:1078C00002D1002A00D0988070BD0F4D2D78012D77
:1078D00005D10E4D2D78012D01D8002902D0C820E8
:1078E000988070BD002AFCD098800028F9D1022031
:1078F00020701870FEF738FF00F040F870BD0000EF
:1079000092040020241D0020800400208104002017
:1079100008B5002000900848C17F012904D007A1C4
:10792000684607F039FF08BD827F05A1521C6846F2
:1079300007F032FF08BD0000041D002020200000D9
:1079400025303264000000000EB500200090019048
:10795000029007480A214088FBF7CAFB0B46024603
:1079600004A1684607F018FFFFF7D2FF0EBD000024
:107970009204002025642E256430300010B5FFF7F6
:10798000E3FF10BD38B5002000902D22022168468B
:10799000FBF7DAFB002006496B464A7804E00C1836
:1079A000A4791C54401CC0B28242F8D838BD0000F3
:1079B000601D0020FEB50020009001900290154C43
:1079C0002E25E07803280CD02D2207216846FBF7EE
:1079D000BBFB6846C5700322002000216D4663781A
:1079E00014E02D2206216846FBF7AEFB6846857041
:1079F0000222F1E7914201D1401CC0B2661807464D
:107A0000B679401CC0B2EE55491CC9B28B42F1D8C0
:107A1000FEBD0000601D00207047000010B50A4840
:107A2000017802290ED100210170084C207801282C
:107A300001D003F03BFB002006F0DEFB01202070AC
:107A4000C820A08010BD0000241D0020920400204A
:107A500070B5174C174DE07F2646203E012807D011
:107A600068888721C900884214D2401C688014E0CD
:107A7000A07F06F08EFAA077FF2807D0400080197B
:107A8000C178827808021043688006E00520FCF780
:107A900067FB70BD5F20C0006880022028700A204C
:107AA000A88068883070000A7070FFF74DFF70BDC5
:107AB000041D00209204002070B5174C174DE07F84
:107AC0002646203E012807D068885F21C9008842E9
:107AD00014D9401E688014E0A07F06F03FFAA0771A
:107AE000FF2807D040008019C1788278080210432F
:107AF000688006E00520FCF733FB70BD8720C000DE
:107B00006880022028700A20A88068883070000AE7
:107B10007070FFF719FF70BD041D00209204002053
:107B200070B52C4C3221217061784A1C62700919A1
:107B300088716178012902D0E278914202D901214D
:107B40006170A071A1790025302903D00846323830
:107B5000042804D265700020FCF702FB70BD3129B7
:107B60002ED00320E0701B486178401D085C30383F
:107B7000C0B21949C979002925D0FBF7A9FF61785E
:107B8000E2782046914222D1124A921D8D54801DE6
:107B9000FBF736FB044604F019F81048FF212018C3
:107BA000AF31884209D80E494C80022008700A2063
:107BB00088800C48210A04704170FFF7C5FE70BD33
:107BC0000420E070CFE70020FCF7CAFAD7E7FFF700
:107BD000F1FE70BD601D0020AC1C002076FDFFFF93
:107BE00092040020E41C002010B5164C1648A17A1F
:107BF00000290ED0C27F01462039012A18D0012267
:107C0000C277827F52005118CA788B7811021943CB
:107C10006180C07F012813D03C20FCF765F9FFF795
:107C20006BFC022020700A20A080FFF78DFE10BDA3
:107C30000022C2774A780B78110219436180E8E785
:107C40003B20EAE792040020041D002010B5FFF756
:107C50002BFE1E48007802280BD11D4C20780128ED
:107C600007D0022806D0032809D0042827D0FFF720
:107C7000C9F810BD03F0EEF90420207010BDA088F3
:107C8000F52189008842F9D203F026FA022807D0AC
:107C9000A188002904D00128F0D103F045FA10BDD5
:107CA000022020700B48C07F002805D10949608858
:107CB00020390870000A4870FFF746FE10BD00200A
:107CC000A080012006F098FA10BD0000241D0020BD
:107CD00092040020041D002010B52630C0B20549D2
:107CE000C97F012902D0FFF71BFF10BDFFF740FD40
:107CF00010BD0000041D002010B502461448137882
:107D000052781C46A13C022C09D8A12A07D35E2335
:107D10005C43A218A13A18235A43101814E0A92B67
:107D200006D1A12A04D3793218235A4310180BE044
:107D3000B03B472B08D8A12A06D35E2463439A1888
:107D4000D73218235A431018182206F051FB10BDE1
:107D500080CF050010B509231B04002A00D1184B61
:107D60000078FF220446303C9932092C05D8104691
:107D70004443E01806F03CFB19E0432807D04828AC
:107D80000BD02D280ED02E2813D0002010BDFF20A0
:107D90000001181806F02CFB09E00A48181806F034
:107DA00027FB04E099204001181806F021FB012070
:107DB00010BD05481818662206F01AFB022010BDF7
:107DC0001E15090088110000B814000010B5024605
:107DD00001204004137852781C46A43C042C01D89E
:107DE000A12A18D21C46A13C082C08D8A12A06D3E7
:107DF0005E235C43A218A13A520110180BE0B03B7D
:107E0000472B08D8A12A06D35E2463439A18044B53
:107E1000D21852011018202206F0EAFA10BD000014
:107E2000AD02000010B5024605481278203A5E2ADD
:107E300001D8D2001018052206F0DAFA10BD0000B1
:107E4000C0BF050010B5024605481278203A5E2AE8
:107E500002D80C235A4310180C2206F0C9FA10BDA0
:107E6000406D080010B50E4B8724E400002A00D0B6
:107E70000C4B00780246303A092A06D86C2042435F
:107E8000D0186C2206F0B4FA07E02D2801D00020AB
:107E900010BD18196C2206F0ABFA012010BD0000CD
:107EA000F03009002835090010B50246054812785F
:107EB000203A5E2A01D812011018102206F098FA12
:107EC00010BD0000C0B70500F8B51D4D69784A1C0B
:107ED0006A7049198871697800271A4E012901D002
:107EE000072903D301216970A871376114486978A3
:107EF000401D085C3038C4B21348C079002814D043
:107F00002046FBF7E5FD687806280DD10C49891D50
:107F10004754A81DFBF774F90C49092C09D00A2213
:107F2000095D504340183061F8BD0020FCF718F996
:107F3000E9E70A22497A5043401A3061F8BD00004F
:107F4000601D0020A0040020AC1C00209AFE000848
:107F5000F0B50121C90208430123002101220F4F7E
:107F600002260C46344005461D40002C01D0002D51
:107F700011D12C430FD03C465B041B0C49086140D7
:107F8000521CD2B20D2AECD30905090C400009029B
:107F900008434008F0BD0024EEE70000750C000027
:107FA000F0B500220325012393400C681C409C423D
:107FB0002AD10C79012C01D0022C12D187685400EF
:107FC0002E46A640B74387604E79A6408468264374
:107FD000866084889C43848084888B7993401C438A
:107FE0008480066853002C469C40A64306600E79A8
:107FF00007689E403E430660C668A643C660CC79CB
:108000009C40C3681C43C460521C102ACBD3F0BDF3
:1080100010B54B07DB0E9A40C90889000818016AA1
:108020000F249C40A1430162016A1143016210BD0B
:10803000008A70470185704781617047818270476F
:10804000FA2801D901207047002805D0692801D8F5
:1080500002207047032070470020704710B50028A9
:108060000ED0FF281AD041001248405A0A21FBF7CF
:108070003FF80B46024610A1114807F08DFB10BDDA
:108080001048007A012804D00FA10D4807F084FBA6
:1080900010BD0EA10A4807F07FFB10BD0D480A2154
:1080A0000069FBF725F80B46024603A1044807F0D8
:1080B00073FB10BD1600010825642E2564487A0064
:1080C000760C0020AC1C00204F464600B9D8B1D534
:1080D00000000000A004002001460020084A8300A0
:1080E000D35A8B4205D843005B1C5B00D35A8B42AA
:1080F00004D8401CC0B20428F1D30020704700000F
:10810000040C0020F8B51D4D2878092811D1FDF781
:10811000CFFC1B4F00267C78002C09D0284620304D
:108120008470FF221021C01CFBF70EF8002017E01E
:108130002E70F8BD391889790A463A3A0A2A04D8C5
:1081400037392A182032D17008E02A290CD0232987
:108150000FD00907090F2A182032D170401CC0B275
:108160008442E7D82E70F8BD0E212A182032D17033
:10817000F4E70F212A182032D170EFE7241D0020E8
:10818000601D00207D2212010B49904202D2002086
:1081900008737047831A7D22D200934202D20220D4
:1081A00008737047054BC018904202D20320087331
:1081B00070470120087370475C1F002048F4FFFFE0
:1081C000F8B500241D4F1E4E1C4865001438415B55
:1081D0003046FFF731FF19480A38415B3046FFF758
:1081E00029FF0520FDF792F8304600F0B7FB71211A
:1081F0004902084031214902401A1BD0012189035C
:10820000401A13D04910401A0CD00F21490288425D
:1082100002D1A000385CF8BD641CE4B2052CD3D3B5
:10822000FF20F8BDA000C0194078F8BDA000C0191B
:108230008078F8BDA000C019C078F8BD9000010892
:10824000000400480449897A814202D1FF20893024
:1082500070470020704700005C1F00207CB50023A1
:1082600001240325002A05D06A46147193715571C3
:10827000D37103E06A4613715571D4710091694658
:10828000FFF78EFE7CBD0000FEB5272001214004D3
:1082900002F066FD05200121000302F08BFD464837
:1082A00000900126684606710024847103254571FB
:1082B000C47109206946C006FFF772FE0920142127
:1082C000C006FFF7BBFE3D4800906846047145714B
:1082D000C67109206946C006FFF762FE0095684630
:1082E0000571C47109206946C006FFF759FE0920CF
:1082F00000220521C006FFF78BFE0920002206217F
:10830000C006FFF785FE092000220721C006FFF7FF
:108310007FFEE02000900227684607714571847156
:10832000C67109206946C006FFF73AFE244800904E
:108330006846067184714571C47169462148FFF72A
:108340002FFE21491F48FFF779FE2802009068465A
:1083500004714571C67169461A48FFF721FE002273
:108360000D211848FFF754FE00220F211548FFF792
:108370004FFE164800906846077145718471C471BC
:1083800069461048FFF70CFE07204003009068463E
:1083900004714571C67169460D48FFF701FEC3209F
:1083A00000906846067184714571C4716946094838
:1083B000FFF7F6FDFEBD000014D900000820000004
:1083C000FFFC0000000400487D1C000002A000002B
:1083D0000008004800140048FEB5534804225149E3
:1083E0000190FAF79FFE504E04200E3EB0814D4F93
:1083F0003078093F39460F3103280AD03A46157BB9
:108400003246528904280BD0062863D057285DD104
:1084100046E00422301DFAF785FE0020308155E049
:10842000002A08D004226846FAF77CFEF87C397DE1
:108430000002401884B2022D06D0032D12D0042D64
:108440001FD005F055FF41E0002508E0009805F039
:1084500075FF0098FF30013000906D1CEDB2A54211
:10846000F4D333E0002509E0009805F0DBFE01209D
:108470000099C003081800906D1CEDB2A542F3D31B
:1084800024E0002509E0009805F0FEFE0120009997
:108490000004081800906D1CEDB2A542F3D315E05E
:1084A000F87A0002401980B23389834204D0062151
:1084B000EE2006F091F8FEBD706806F049F871896B
:1084C0007068401870603089401C3081B089042881
:1084D00002D00DE002F0E0F9134900200E39887453
:1084E0000120C8740720B0810F4859210E3801754A
:1084F000B089401E81B20C48401CFBF7C9FEB1890F
:10850000030A4A1CB28189198B73B1894A1CB28152
:1085100089198873B189019806F050FC0020B08158
:10852000F880FEBD0D0700202E0B0020BFF34F8FFB
:1085300003490248C860BFF34F8FFEE70400FA0505
:1085400000ED00E0F1B5224F01210022C9023846BA
:10855000FFF784FE1420FCF7D9FE00240025022634
:108560001C4886610A20FCF7D1FE6006040E388A9A
:10857000000501D5012004431648203006810A2059
:10858000FCF7C4FE6D1CEDB2082DE9D30122D50223
:1085900029463846FFF762FE1420FCF7B7FE009824
:1085A000002801D0BD6102E00948203005810A2081
:1085B000FCF7ACFE074886610A20FCF7A7FE0548D9
:1085C000203006810A20FCF7A1FE2046F8BD0000FD
:1085D0000004004800140048F8B505460F46012F76
:1085E00002D000247E1E0EE00120FFF7ABFF2870B2
:1085F0000120F8BD0A20FCF789FE0020FFF7A2FF4A
:108600002855641CE4B2B442F4DB0A20FCF77EFE79
:108610000120FFF797FF28553846F8BD70B50125B2
:108620000C48ED0285610A20FCF770FE0A4802241E
:1086300084610A20FCF76AFE0648203005810A2082
:10864000FCF764FE0448203004810A20FCF75EFE3B
:1086500070BD00000004004800140048F8B50D4E3D
:10866000022434810A20FCF751FE0B4FA5023D8104
:108670000A20FCF74BFE0748203884610A20FCF7EB
:1086800045FE0548203885610A20FCF73FFE34810D
:108690003D81F8BD2014004820040048F8B5074685
:1086A00001200090284D02262E810A20FCF72EFE84
:1086B0000024B502380602D42448058102E023488C
:1086C000203885617806070E0A20FCF71FFE1E4839
:1086D000203886610A20FCF719FE1B4806810A2013
:1086E000FCF714FE641CE4B2082CE3D317480581A0
:1086F0000A20FCF70BFE154C0022203C29462046A0
:10870000FFF7ACFD0A20FCF701FE0F482038866118
:108710000A20FCF7FBFD0022208A000502D400207D
:10872000009003E0521CD2B2642AF5D306480681B9
:108730000A20FCF7EBFD012229462046FFF78EFDBB
:10874000A5610098F8BD00002014004820040048EE
:1087500010B50A4A6421117051780F290AD2931D6D
:10876000C8545078401C50700020FBF7F9FCFDF70E
:1087700017F810BD0320FBF7F3FC10BD601D0020AF
:1087800070B50246234D244B2878002807D1302AA3
:108790000AD0104630389870012005F079FC28780E
:1087A000062805D9012070BD2020FCF75FF970BDB7
:1087B0000146401C287048194270164C0026287843
:1087C000641C06559878012803D05E70312A03D0C6
:1087D00009E00220587006E02878401EC0B22870D8
:1087E0000655FEF775FA05F0C3FA002808D0287878
:1087F000012809D0401EC0B228700655012070BD66
:108800000020FDF757FA02E00120FDF753FA00209F
:1088100070BD000080020020340C002010B50A4B0F
:10882000597804E05A1854799471491EC9B29A785B
:108830008A42F7D399784A1C9A70C9188871587877
:10884000401C5870002010BD601D0020F8B5414C40
:10885000E078A070FFF7B4FCE070A178814201D00D
:108860000020F8BD3B4B0022FF255B1D3A4FFF283F
:1088700004D021780126FF2918D01CE02078FF2899
:1088800009D06178002909D03978022906D02570ED
:1088900062700020F8BD22710020F8BD22711870AE
:1088A000022058709A7025700120F8BD2070267142
:1088B0003978022909D02178814238D12079401CA9
:1088C000C0B22071642805D01AE05E7018709A70EA
:1088D0000120F8BD07291CD008291AD0022918D078
:1088E000042916D0142914D0152912D00A2910D021
:1088F00012290ED009290CD000290AD0012908D04C
:1089000096281CD38C202071072909D0082907D06C
:1089100015E01970032058709E7066700120F8BD34
:1089200019705A700220987066700120F8BD607846
:10893000002806D03878022803D022712570002044
:10894000F8BD19709A7002205870227125700120AC
:10895000F8BD0000650200208004002010B5074823
:10896000FFF766FB0121490204460C400448FFF76B
:108970005FFB400B4003204310BD00000004004893
:108980000008004810B5FFF761FF00281DD00F4810
:108990000421C170002101710D48C07E002810D053
:1089A0000C49087800280CD001280AD0142802D1DC
:1089B0008878012805D0FF20087000208870FBF718
:1089C000CFFB00F05BFB03F065F910BD241D002018
:1089D000AC1C00206A02002010B50948C17E0029A5
:1089E00005D00021C1762620FBF77EFA04E00121A4
:1089F000C1762520FBF778FA0120FCF7EBFF10BDCC
:108A0000AC1C002010B5030006F0DAFE16293F4228
:108A10004242421115191D0C0C0C0C0C0C0C0C0CC8
:108A20000C2125422630C0B2FFF792FE10BD412036
:108A3000FFF78EFE10BD4220FFF78AFE10BD4320D7
:108A4000FFF786FE10BD4420FFF782FE10BD2A20EE
:108A5000FFF77EFE10BD2320FFF77AFE10BD0E4902
:108A6000487800280DD0401EC0B2487064220A70B9
:108A70000022891D4254FCF793FE0320FBF770FB94
:108A800010BD0020FBF76CFB10BDFEF7ABF910BD6D
:108A90000020FBF765FB10BD601D002010B5404AAB
:108AA00001241178030006F08BFE216D6D59777754
:108AB00077151D2C3B121212121212121212125C96
:108AC000776D777777776A77777723327700FFF755
:108AD00003F910BD002005F08FFB02F0E7FAFDF767
